{
  "contractName": "SongRegistry",
  "abi": [
    {
      "constant": true,
      "inputs": [
        {
          "internalType": "uint256",
          "name": "",
          "type": "uint256"
        }
      ],
      "name": "songs",
      "outputs": [
        {
          "internalType": "address payable",
          "name": "owner",
          "type": "address"
        },
        {
          "internalType": "string",
          "name": "title",
          "type": "string"
        },
        {
          "internalType": "string",
          "name": "url",
          "type": "string"
        },
        {
          "internalType": "uint256",
          "name": "price",
          "type": "uint256"
        }
      ],
      "payable": false,
      "stateMutability": "view",
      "type": "function"
    },
    {
      "constant": false,
      "inputs": [
        {
          "internalType": "string",
          "name": "title",
          "type": "string"
        },
        {
          "internalType": "string",
          "name": "url",
          "type": "string"
        },
        {
          "internalType": "uint256",
          "name": "price",
          "type": "uint256"
        }
      ],
      "name": "register",
      "outputs": [
        {
          "internalType": "uint256",
          "name": "",
          "type": "uint256"
        }
      ],
      "payable": false,
      "stateMutability": "nonpayable",
      "type": "function"
    },
    {
      "constant": false,
      "inputs": [],
      "name": "numberOfSOngs",
      "outputs": [
        {
          "internalType": "uint256",
          "name": "",
          "type": "uint256"
        }
      ],
      "payable": false,
      "stateMutability": "nonpayable",
      "type": "function"
    },
    {
      "constant": true,
      "inputs": [
        {
          "internalType": "uint256",
          "name": "songId",
          "type": "uint256"
        }
      ],
      "name": "isBuyer",
      "outputs": [
        {
          "internalType": "bool",
          "name": "",
          "type": "bool"
        }
      ],
      "payable": false,
      "stateMutability": "view",
      "type": "function"
    },
    {
      "constant": false,
      "inputs": [
        {
          "internalType": "uint256",
          "name": "songId",
          "type": "uint256"
        }
      ],
      "name": "buy",
      "outputs": [],
      "payable": true,
      "stateMutability": "payable",
      "type": "function"
    }
  ],
  "bytecode": "0x608060405234801561001057600080fd5b50610a4d806100206000396000f3fe60806040526004361061004a5760003560e01c8063304cff301461004f578063b8629938146101a9578063d96a094a146101d4578063e8a6055814610202578063fecf415a1461037f575b600080fd5b34801561005b57600080fd5b506100886004803603602081101561007257600080fd5b81019080803590602001909291905050506103d2565b604051808573ffffffffffffffffffffffffffffffffffffffff1673ffffffffffffffffffffffffffffffffffffffff1681526020018060200180602001848152602001838103835286818151815260200191508051906020019080838360005b838110156101045780820151818401526020810190506100e9565b50505050905090810190601f1680156101315780820380516001836020036101000a031916815260200191505b50838103825285818151815260200191508051906020019080838360005b8381101561016a57808201518184015260208101905061014f565b50505050905090810190601f1680156101975780820380516001836020036101000a031916815260200191505b50965050505050505060405180910390f35b3480156101b557600080fd5b506101be61055f565b6040518082815260200191505060405180910390f35b610200600480360360208110156101ea57600080fd5b810190808035906020019092919050505061056b565b005b34801561020e57600080fd5b506103696004803603606081101561022557600080fd5b810190808035906020019064010000000081111561024257600080fd5b82018360208201111561025457600080fd5b8035906020019184600183028401116401000000008311171561027657600080fd5b91908080601f016020809104026020016040519081016040528093929190818152602001838380828437600081840152601f19601f820116905080830192505050505050509192919290803590602001906401000000008111156102d957600080fd5b8201836020820111156102eb57600080fd5b8035906020019184600183028401116401000000008311171561030d57600080fd5b91908080601f016020809104026020016040519081016040528093929190818152602001838380828437600081840152601f19601f820116905080830192505050505050509192919290803590602001909291905050506106e8565b6040518082815260200191505060405180910390f35b34801561038b57600080fd5b506103b8600480360360208110156103a257600080fd5b8101908080359060200190929190505050610879565b604051808215151515815260200191505060405180910390f35b600081815481106103df57fe5b90600052602060002090600402016000915090508060000160009054906101000a900473ffffffffffffffffffffffffffffffffffffffff1690806001018054600181600116156101000203166002900480601f0160208091040260200160405190810160405280929190818152602001828054600181600116156101000203166002900480156104b15780601f10610486576101008083540402835291602001916104b1565b820191906000526020600020905b81548152906001019060200180831161049457829003601f168201915b505050505090806002018054600181600116156101000203166002900480601f01602080910402602001604051908101604052809291908181526020018280546001816001161561010002031660029004801561054f5780601f106105245761010080835404028352916020019161054f565b820191906000526020600020905b81548152906001019060200180831161053257829003601f168201915b5050505050908060030154905084565b60008080549050905090565b600080828154811061057957fe5b9060005260206000209060040201905080600301543414610602576040517f08c379a00000000000000000000000000000000000000000000000000000000081526004018080602001828103825260188152602001807f56616c756520646f65736e74206d61746368207072696365000000000000000081525060200191505060405180910390fd5b600160008381526020019081526020016000203390806001815401808255809150509060018203906000526020600020016000909192909190916101000a81548173ffffffffffffffffffffffffffffffffffffffff021916908373ffffffffffffffffffffffffffffffffffffffff160217905550508060000160009054906101000a900473ffffffffffffffffffffffffffffffffffffffff1673ffffffffffffffffffffffffffffffffffffffff166108fc349081150290604051600060405180830381858888f193505050501580156106e3573d6000803e3d6000fd5b505050565b60006106f2610935565b60405180608001604052803373ffffffffffffffffffffffffffffffffffffffff1681526020018681526020018581526020018481525090506000819080600181540180825580915050906001820390600052602060002090600402016000909192909190915060008201518160000160006101000a81548173ffffffffffffffffffffffffffffffffffffffff021916908373ffffffffffffffffffffffffffffffffffffffff16021790555060208201518160010190805190602001906107bc929190610973565b5060408201518160020190805190602001906107d9929190610973565b50606082015181600301555050506001600060016000805490500381526020019081526020016000203390806001815401808255809150509060018203906000526020600020016000909192909190916101000a81548173ffffffffffffffffffffffffffffffffffffffff021916908373ffffffffffffffffffffffffffffffffffffffff160217905550506001600080549050039150509392505050565b600080600160008481526020019081526020016000209050600080600090505b828054905081101561092a573373ffffffffffffffffffffffffffffffffffffffff168382815481106108c857fe5b9060005260206000200160009054906101000a900473ffffffffffffffffffffffffffffffffffffffff1673ffffffffffffffffffffffffffffffffffffffff161415610918576001915061091d565b600091505b8080600101915050610899565b508092505050919050565b6040518060800160405280600073ffffffffffffffffffffffffffffffffffffffff1681526020016060815260200160608152602001600081525090565b828054600181600116156101000203166002900490600052602060002090601f016020900481019282601f106109b457805160ff19168380011785556109e2565b828001600101855582156109e2579182015b828111156109e15782518255916020019190600101906109c6565b5b5090506109ef91906109f3565b5090565b610a1591905b80821115610a115760008160009055506001016109f9565b5090565b9056fea265627a7a723158206a548c5770043e79341a8118104c19db9d18a8645964288bd6cb781bbdab635e64736f6c63430005100032",
  "source": "pragma solidity >=0.5.0; \n \ncontract SongRegistry {\n\nstruct Song {    //1st bullet point\n\n address payable owner;\n string title;\n string url;\n uint price;\n\n}\n\nSong[] public songs;   //2nd bullet point \n\nmapping(uint => address[]) buyers;  //3rd bullet point\n\nfunction register(string memory title, string memory url, uint price) public returns(uint) {  //4th bullet point of fucntion to register the song \n// dont include address as anyone could register the song - anyone can put my address in the function and call the function but its not me, not the owner\n//set owner as msg.sender so only the owner registers the song \nSong memory song = Song(msg.sender, title, url, price); //creates song based on owner, title, url and price  and create it in memory before put it into storage \nsongs.push(song); //adds song to the 'songs' array \nbuyers[songs.length - 1].push(msg.sender); // reutrns lenght of songs array and by reducing it by 1 returns the index of the last element which is the song we jsut created\nreturn songs.length - 1; //gets songId\n}  \n\nfunction numberOfSOngs() public returns(uint) {  //5th bullet point get the no of songs registered \n    return songs.length; \n}\n\nfunction isBuyer(uint songId) public view returns(bool) { //6th bullet point to check whether sneder is regitered buyer\naddress[] storage songBuyers = buyers[songId]; //creates array of songbuyers and getting it from storage \nbool buyer;\nfor (uint i = 0; i < songBuyers.length; i++) {\n  if (songBuyers[i] == msg.sender) {\n      buyer = true;\n  } else {\n      buyer = false; \n  }\n }\n return buyer;\n}\n\nfunction buy(uint songId) public payable { //7th bullet point to buy a song given songId: need payable else cant access msg.value\nSong storage song = songs[songId]; //getting the song out of the songs array and retriving out of storage \nrequire(msg.value == song.price, \"Value doesnt match price\"); \nbuyers[songId].push(msg.sender); \nsong.owner.transfer(msg.value); //another way to typecast \n}\n\n }",
  "sourcePath": "/home/user/SongRegistry/contracts/SongRegistry.sol",
  "compiler": {
    "name": "solc",
    "version": "0.5.16+commit.9c3226ce.Emscripten.clang"
  },
  "schemaVersion": "3.0.23",
  "updatedAt": "2020-02-23T20:32:44.847Z",
  "devdoc": {
    "methods": {}
  },
  "userdoc": {
    "methods": {}
  }
}